:020000020000FC
:100000000C94C2000591003019F00E942B00FACF29
:1000100008950F9302950F700A3008F0095F005D94
:100020000E942B000F910F700A3008F0095F005DED
:100030000E942B00089507E610E00093C40010937F
:10004000C50008E10093C10006E00093C20000274C
:100050000093C00008950F930091C00005FFFCCFEE
:100060000F910093C60008950091C00007FFFCCFD8
:100070000091C60008950F921F921DEC019F10E29F
:10008000119D1AE0012E102F012D109C10191F90A8
:100090000F9008952F93212F11271F930E943B004B
:1000A00010631F932A95D1F70F91002B19F00E942E
:1000B0002B00FACF2F910895FF93EF93DF93CF9307
:1000C000BF93AF939F938F937F936F935F934F9360
:1000D0003F932F931F930F93FF92EF92DF92CF9254
:1000E000BF92AF929F928F927F926F925F924F9248
:1000F0003F922F921F920F92FEB7EDB720E2332767
:10010000019102E70E942B00032F339512E00E9419
:100110004A000AE30E942B0001910E94090000E2BC
:100120000E942B000E942B00032F077041F40DE06A
:100130000E942B000AE00E942B000E942B002A95AF
:1001400001F70F901F902F903F904F905F906F900E
:100150007F908F909F90AF90BF90CF90DF90EF9067
:10016000FF900F911F912F913F914F915F916F9150
:100170007F918F919F91AF91BF91CF91DF91EF913F
:10018000FF9108950E941B000E945C000F93FF9353
:10019000EF93F1E0E4ED0E940200EF91FF910F91E7
:1001A000259A0E9434000E94DA000E94E3000E9417
:1001B0002B00F7CF003329F0013309F008952D9A71
:1001C00008952D980895013620F00B3710F40F7D17
:1001D0000895089548656C6C6F20576F726C6421A8
:0201E00000001D
:00000001FF
